:1000000038C2000052C2000050C200004EC20000C0
:100010004CC200004AC2000048C2000046C20000B4
:1000200044C2000042C2000040C200003EC20000C4
:100030003CC200003AC2000038C2000036C20000D4
:1000400074C6000032C2000030C200002EC20000A0
:10005000F0C400002AC2000028C2000026C200002E
:1000600024C2000022C2000020C200001EC2000004
:100070006E616E00696E660000407A10F35A00A04F
:10008000724E18090010A5D4E80000E87648170061
:1000900000E40B54020000CA9A3B000000E1F505A1
:1000A000000080969800000040420F000000A086EB
:1000B00001000000102700000000E803000000001D
:1000C0006400000000000A000000000001000000C1
:1000D00000002C76D888DC674F0823DFC1DFAE59DB
:1000E000E1B1B796E5E3E453C63AE651997696E86E
:1000F000E6C28426EB898C9B62ED407C6FFCEFBCF2
:100100009C9F40F2BAA56FA5F490055A2AF75C931C
:100110006B6CF9676DC11BFCE0E40D47FEF520E652
:10012000B500D0ED902E0300943577050080841E35
:10013000080000204E0A000000C80C333333330F90
:10014000986E12831141EF8D2114893BE65516CF2D
:10015000FEE6DB18D1844B381BF77C1D901DA4BB39
:10016000E424203284725E228100C9F124ECA1E5EE
:100170003D27535953543A4552523F002A52535443
:100180000054464120446F73746D616E6E203330AD
:100190002E333231352E303220726164696F20691E
:1001A0006E74657266616365206279205374616E56
:1001B00069736C6176204D61736C616E2C205631D1
:1001C0002E302C204A756C20323720323032330AE0
:1001D000002A49444E3F004E6F20706172616D6588
:1001E0007465727320657870656374656420666FEA
:1001F00072205446413A434F554E543A5245534566
:1002000054005446413A434F554E543A5245534593
:1002100054004E6F20706172616D65746572732059
:10022000657870656374656420666F72205446411A
:100230003A434F554E543F005446413A434F554E72
:10024000543F005446413A53594E43203C63686141
:100250006E6E656C3E20706172616D6574657220B2
:100260006D757374206265203120746F2033206FA8
:100270007220656D7074792E005446413A53594E80
:1002800043006572726F722070617273696E6720CD
:10029000646174613A20756E6B6E6F776E20736562
:1002A0006E736F7220747970653F0A005446413A4C
:1002B000444154413F203C6368616E6E656C3E2052
:1002C000706172616D65746572206D757374206202
:1002D00065203120746F2033206F7220656D70743B
:1002E000792E005446413A444154413F00300A00BF
:1002F000310A005446413A444154413A4E45573F31
:10030000203C6368616E6E656C3E20706172616D49
:1003100065746572206D7573742062652031207478
:100320006F2033206F7220656D7074792E005446F3
:10033000413A444154413A4E45573F005446413AB0
:100340004845414420706172616D65746572206D2D
:100350007573742062652030206F7220312E005436
:1003600046413A48454144005446413A54414C4B79
:1003700020706172616D65746572206D7573742093
:1003800062652030206F7220312E005446413A546D
:10039000414C4B002532752C2025752C2025302E04
:1003A00031662C2025752C2025752C2025750A00FA
:1003B00069643D2532752C2063686E3D25752C20BF
:1003C000743D25302E316622432C2072683D257500
:1003D00025252C20626174743D25752C2073796E5F
:1003E000633D25750A000A00302C204E6F2065728F
:1003F000726F722E002D3235382C20454550524FE9
:100400004D2077726974652070726F7465637465CE
:10041000642E002D3130392C204D697373696E675D
:1004200020706172616D65746572732E002D3130BC
:10043000342C2057726F6E6720706172616D657425
:1004400065722074797065206F722076616C7565B5
:100450002E002D3131332C20556E646566696E6532
:100460006420636F6D6D616E6420686561646572A0
:100470002E0011241FBECFEFD0E1DEBFCDBF11E0B3
:10048000A0E0B1E0EAEBF0E202C005900D92AA30E4
:10049000B107D9F721E0AAE0B1E001C01D92A33C69
:1004A000B207E1F76FD00C945B10AACD0F931F93A6
:1004B000CF93DF93CDB7DEB7C054D1090FB6F89410
:1004C000DEBF0FBECDBFFB01DC0112969C91808583
:1004D000A6817581648153814281318120818E01A1
:1004E0000F5F1F4F91FF1BC086FB992790F91F924A
:1004F0009F93082E000C990B892F881F8827881F2F
:100500001F928F931F92AF937F936F935F934F933D
:100510001F923F931F922F9380EB93E01AC086FBAC
:10052000992790F91F929F93082E000C990B892F01
:10053000881F8827881F1F928F931F92AF937F93E6
:100540006F935F934F931F923F931F922F9384E972
:1005500093E09F938F931F930F930E94DE0F0FB62C
:10056000F894DEBF0FBECDBFC80138D3C05CDF4FEB
:100570000FB6F894DEBF0FBECDBFDF91CF911F91B4
:100580000F910895CF93DF93CDB7DEB7C35FD10945
:100590000FB6F894DEBF0FBECDBF549ACE018F5771
:1005A0009F4FAFD379D2C151DF4F19821882CF5EEE
:1005B000D04083E0CF50DF4F8883C15FD0408FEFC2
:1005C000C553DF4F8883CB5CD040CD52DF4F1882BC
:1005D000C35DD040CC52DF4F8883C45DD040C4524D
:1005E000DF4F1882CC5DD040C352DF4F8883CD5D92
:1005F000D040CB51DF4F1882C55ED040789486E062
:10060000E82E81E0F82E8E0105551F4FCC24CA94A8
:1006100099E0D92EBE016E507F4FCE01019659D27E
:10062000882309F41DC16BE873E0CE0101960E9496
:10063000480F892BF1F4CE50DF4FE881F981C25F7A
:10064000D040309721F080818053823020F041E00B
:1006500068E673E056C0CF50DF4F8881C15FD0405D
:100660008E7FCF50DF4F8883C15FD0409081905301
:1006700026C06FE573E0CE0101960E94480F892BDA
:1006800029F5CE50DF4FE881F981C25FD040309725
:1006900021F080818053823020F041E06CE373E0F0
:1006A00030C0CF50DF4F8881C15FD0408D7FCF50A9
:1006B000DF4F8883C15FD0409081990F9056892B7E
:1006C000CF50DF4F8883C15FD040CAC06EE273E075
:1006D000CE0101960E94480F892BB1F4CE50DF4F16
:1006E00088819981C25FD040009709F431C10E948E
:1006F000530E2FEF280F233008F430C141E063EF91
:1007000072E088E99FEFABC063EE72E0CE01019624
:100710000E94480F892BA1F4CE50DF4F8881998128
:10072000C25FD040009709F454C10E94530E2FEFCE
:10073000280F233008F428C141E06CEA72E0E1CFD1
:1007400069E772E0CE0101960E94480F892BA1F45F
:10075000CE50DF4F88819981C25FD040009709F465
:1007600049C10E94530E2FEF280F233008F452C1C5
:1007700041E063E472E0C5CF68E372E0CE01019628
:100780000E94480F892B39F5CE50DF4F888199811F
:10079000C25FD040892B21F041E062E172E0B1CF2D
:1007A000C051DF4F8881C05FD0408F93C151DF4F70
:1007B0008881CF5ED0408F93FF92EF921F930F936B
:1007C0000E94BF0FC8010AD20F900F900F900F9098
:1007D0000F900F9045C062E072E0CE0101960E943A
:1007E000480F892B99F4CE50DF4F88819981C25FE1
:1007F000D040892B21F041E067ED71E082CFC151FB
:10080000DF4F19821882CF5ED0402AC061ED71E0BF
:10081000CE0101960E94480F892B21F481E891E0D6
:10082000C6D11EC06CE771E0CE0101960E94480F50
:10083000892B19F4F8940C94000062E771E0CE0162
:1008400001960E94480F892B21F442E060E070E09D
:1008500004C045E0BE016F5F7F4F8FE89FEFC9D1B5
:10086000C655DF4F8881CA5AD04081FF02C05C9ACA
:1008700001C05C98CE018F579F4F5AD3882309F44B
:10088000C9CEBE016A517F4FCE018F579F4FFDD316
:10089000882309F4BFCEC151DF4F88819981CF5E93
:1008A000D0400196C151DF4F99838883CF5ED040FD
:1008B000C951DF4F8881C75ED0409FEF980F9330BA
:1008C00050F590E00197D89EF001D99EF00D1124CB
:1008D0002BEC30E02C0F3D1FE20FF31F20812F3F48
:1008E00039F0CA51DF4F3881C65ED040231313C0A0
:1008F000D89ED001D99EB00D11248BEC90E08C0FC6
:100900009D1FA80FB91FFE01EA51FF4F8D2D0190C9
:100910000D928A95E1F7CF50DF4F8881C15FD040BB
:1009200080FF78CEBE016A517F4FCE0181519F4F2B
:10093000BDDD9FB7F894C655DF4F8881CA5AD040B5
:100940008D7FC655DF4F8883CA5AD0409FBF62CE85
:10095000C655DF4F8881CA5AD0400EC099270197EB
:10096000D89EF001D99EF00D11242BEC30E02C0F15
:100970003D1FE20FF31F8085827019F080EF92E037
:100980004FCF8DEE92E04CCF99270197D89E500122
:10099000D99EB00C11248BEC90E08C0F9D1FA80EFB
:1009A000B91EB501CE0181519F4F80DDF5018085D3
:1009B0008D7F80879FB7F894C655DF4F8881CA5ACC
:1009C000D0408D7FC655DF4F8883CA5AD0409FBF25
:1009D00047CFB801CE018F579F4F57D3882331F0AF
:1009E000B801CE0181519F4F61DDE4CF82E892E0F2
:1009F000DED0E0CFC553DF4FC882CB5CD040CC52B5
:100A0000DF4FC882C45DD040C352DF4FC882CD5D86
:100A1000D04026CF99270197D89EF001D99EF00D9E
:100A200011242BEC30E02C0F3D1FE20FF31FC0828E
:100A300017CF1F920F920FB60F9211248F939F938F
:100A4000AF93BF93EF93FF93A0913901B0913A0117
:100A50008091C600FD0131968C9391E0EB3BF90744
:100A600010F0EBE3F1E010828A3011F08B3329F4BF
:100A7000809138018F5F80933801F0933A01E093C1
:100A80003901FF91EF91BF91AF919F918F910F909D
:100A90000FBE0F901F90189582E08093C00088E9E8
:100AA0008093C10086E08093C20083E390E090933E
:100AB000C5008093C400EBE3F1E01082F0933A01AB
:100AC000E0933901F093BC01E093BB01109238012F
:100AD00008950F931F93CF93DF938C01F894809127
:100AE0003801789418160CF055C0D8011C92E0918A
:100AF000BB01F091BC01EB011982188220E030E0CB
:100B000090819032D1F4EB0148815981452B11F548
:100B1000AD014F5F5F4F1C9259834883CF01FC01A9
:100B20000196A081A03239F4EBE3F1E0D1E08B3BF8
:100B30009D07A8F3F3CFDA01E3CF9B3329F09A3076
:100B400019F09D3011F006C03F5F211119C01C92B1
:100B5000119616C0222389F0F093BC01E093BB01EB
:100B6000F89480913801831B80933801789481E058
:100B7000F801908191110FC00DC09C93119601C096
:100B800021E0319681E0EB3BF80708F4B9CFEBE3C5
:100B9000F1E0B6CF80E0DF91CF911F910F910895E2
:100BA0009091C00095FFFCCF8093C6000895CF932D
:100BB000DF93FC018491EF012196882341F090910D
:100BC000C00090649093C000EBDFFE01F3CF8091F2
:100BD000C00086FFFCCFDF91CF910895CF93DF93C4
:100BE000EC018991882311F0DBDFFBCFDF91CF91FE
:100BF0000895EF92FF921F93CF93DF937C01EB0157
:100C0000142F40FF2EC080910E01882339F080916F
:100C10000C0190910D01009709F0BCD710920D01C5
:100C200010920C01F0920B01E0920A0112FF13C026
:100C3000FE0101900020E9F7CF018C1B9D0B12D71C
:100C400090930D0180930C01BE010E94690F81E019
:100C500080930E0106C0D0930D01C0930C01109239
:100C60000E0111FF48C080910A0190910B018F384D
:100C7000FFEF9F0799F040F40097B1F08E3F9E4F31
:100C8000B1F485EF93E012C08339FFEF9F0749F07D
:100C900088399F4F61F48DE294E008C082E594E0CA
:100CA00005C083E194E002C088EE93E080DFC0914C
:100CB0000C01D0910D01209759F080E271DF8091F5
:100CC0000E01882319F0CE0189DF02C0CE016FDF4B
:100CD00086EE93E06CDF80910E01882321F020974F
:100CE00011F0CE0157D710920D0110920C01109205
:100CF0000B0110920A01DF91CF911F91FF90EF90AD
:100D00000895FC0152985A98539A82E084BD85BD9B
:100D100081E387BDAEE6B0E09C9192609C93F09336
:100D2000BE01E093BD0111A608951F920F920FB668
:100D30000F921124BF92CF92DF92EF92FF920F9306
:100D40001F932F933F934F935F936F937F938F9353
:100D50009F93AF93BF93CF93DF93EF93FF9389B1AB
:100D6000847020913701982F92278093370129238F
:100D700019F010923601A7C0892309F4A4C060912C
:100D8000360170E080E090E0C1D16B017C0120E091
:100D900030E040E850E4B4D187FF02C08FEF91C04B
:100DA00021E030E048ED51E4C701B601A9D187FF49
:100DB00010C080913501811186C08FEF809335017D
:100DC00080913401883008F07EC08F5F80933401B9
:100DD0007AC020E030E048E453E4C701B601F5D121
:100DE00018160CF5809134019DEF980F9530C0F4E2
:100DF000A091BD01B091BE0193E2E1E1F1E001906B
:100E00000D929A95E1F7E091BD01F091BE0183A3A7
:100E100081A5816081A71092100110920F015B9A49
:100E20001092340150C020E030E048EC52E4C70199
:100E3000B601CBD1181684F484E280933501E09199
:100E40003401E73008F03FC085E0E89FF00111244D
:100E5000EF5EFE4F148237C080913501181674F58D
:100E6000C0913401C73060F5815080933501982FCF
:100E7000977001E010E001C0000F9A95EAF78595A0
:100E80008595859595E0C99FE0011124CF5EDE4FE1
:100E9000C80FD11D87FDDA95B02EB0948881B82295
:100EA00021E030E048E552E4C701B6018ED187FF6A
:100EB00002C0B88208C00B29088305C0811103C095
:100EC000815080933501809136018F3F19F08F5FFB
:100ED0008093360160910F01709110016F5F7F4F19
:100EE0007093100160930F0180E090E00DD120E03D
:100EF00030E44CE955E469D187FF5B98FF91EF91AD
:100F0000DF91CF91BF91AF919F918F917F916F9121
:100F10005F914F913F912F911F910F91FF90EF9013
:100F2000DF90CF90BF900F900FBE0F901F9018953D
:100F30002F923F924F925F926F927F928F929F92E9
:100F4000AF92BF92CF92DF92EF92FF920F931F93D7
:100F5000CF93DF93CDB7DEB7AB970FB6F894DEBF74
:100F60000FBECDBFFC0121A520FD02C080E074C0F2
:100F70008C019FB7F89483E2DE01119601900D92E7
:100F80008A95E1F7F80123A081A58E7F81A79FBFF5
:100F90005E01F4E2AF0EB11C87E0F50111928A9573
:100FA000E9F7CE0101963C016501312C512C412C11
:100FB0001BA64214A9F1F6018081811129C0CE013E
:100FC00001964C0175018E2D8A19821508F5F701DD
:100FD0008081811116C045E050E0B401C3016CD797
:100FE000892B79F4F60180818F5F808358161CF479
:100FF0004BA6352C582EF7018081882311F08FEFF6
:1010000080839FEFE91AF90AE5E08E0E911CDBCF91
:101010004394FFEFCF1ADF0A85E0680E711CC9CF39
:10102000531409F4A3CFD8019496E1E0F0E0EC0F5B
:10103000FD1F9BA585E09802E00DF11D112485E0C0
:1010400001900D928A95E1F79FB7F894F80181A578
:10105000826081A79FBF81E0AB960FB6F894DEBF98
:101060000FBECDBFDF91CF911F910F91FF90EF90F9
:10107000DF90CF90BF90AF909F908F907F906F90B8
:101080005F904F903F902F9008950F931F93CF93B1
:10109000DF938C01EB01FC0184A18E8385A196A1D5
:1010A000BC017F7093FD706F072E000C880B990BAD
:1010B0002DD02DEC3CEC4CEC5DE38BD06A837B8334
:1010C0008C839D83F80186A1829583708F5F8983CD
:1010D00087A18F70888327A130A584E03695279556
:1010E0008A95E1F72F8386A1807C8260888781E0E2
:1010F000203909F080E0DF91CF911F910F91089581
:1011000040D008F481E00895E89409C097FB3EF4CC
:1011100090958095709561957F4F8F4F9F4F992344
:10112000A9F0F92F96E9BB279395F69587957795C2
:101130006795B795F111F8CFFAF4BB0F11F460FF82
:101140001BC06F5F7F4F8F4F9F4F16C0882311F0DA
:1011500096E911C0772321F09EE8872F762F05C0EE
:10116000662371F096E8862F70E060E02AF09A9589
:10117000660F771F881FDAF7880F9695879597F97E
:101180000895990F0008550FAA0BE0E8FEEF161618
:101190001706E807F907C0F012161306E407F5076B
:1011A00098F0621B730B840B950B39F40A2661F0DF
:1011B000232B242B252B21F408950A2609F4A14082
:1011C000A6958FEF811D811D0895DBDF08F48FEF59
:1011D00008950BD078C069D028F06ED018F0952310
:1011E00009F05AC05FC01124A2C07ED0A0F3959F21
:1011F000D1F3950F50E0551F629FF001729FBB27FE
:10120000F00DB11D639FAA27F00DB11DAA1F649FA9
:101210006627B00DA11D661F829F2227B00DA11D5C
:10122000621F739FB00DA11D621F839FA00D611DE2
:10123000221F749F3327A00D611D231F849F600D03
:10124000211D822F762F6A2F11249F5750408AF03C
:10125000E1F088234AF0EE0FFF1FBB1F661F771FC8
:10126000881F91505040A9F79E3F510570F014C05F
:101270005EC05F3FECF3983EDCF38695779567950B
:10128000B795F795E7959F5FC1F7FE2B880F911DE6
:101290009695879597F9089597F99F6780E870E08C
:1012A00060E008959FEF80EC089500240A941616DC
:1012B000170618060906089500240A941216130644
:1012C000140605060895092E0394000C11F48823D2
:1012D00052F0BB0F40F4BF2B11F460FF04C06F5FEE
:1012E0007F4F8F4F9F4F089557FD9058440F551FC4
:1012F00059F05F3F71F04795880F97FB991F61F098
:101300009F3F79F087950895121613061406551F0E
:10131000F2CF4695F1DF08C0161617061806991F7A
:10132000F1CF86957105610508940895E894BB276F
:1013300066277727CB0197F90895A0E1B0E0E2EAAC
:10134000F9E059C37C011B016A01FC011782168276
:10135000838181FF2AC39E012F5F3F4F3901F7012F
:101360009381F10193FD859193FF81911F01882362
:1013700009F417C3853239F493FD859193FF819168
:101380001F01853231F4B70190E0BDD556016501EA
:10139000E6CF10E0512C912CFFE1F915D8F08B32FB
:1013A00079F038F4803279F08332A1F4F92DF061CC
:1013B0002EC08D3261F0803369F4292D21602DC05B
:1013C000392D3260932E892D8460982E2AC0E92D04
:1013D000E86015C097FC2DC020ED280F2A3088F456
:1013E00096FE06C03AE0139F200D1124122F19C05B
:1013F0008AE0589E200D1124522EE92DE0629E2E87
:1014000010C08E3231F496FCCCC2F92DF0649F2EC0
:1014100008C08C3621F4292D2068922E02C088360F
:1014200041F4F10193FD859193FF81911F01811199
:10143000B3CF9BEB980F933020F4992D9061805E91
:1014400007C09BE9980F933008F059C1992D9F7EF2
:1014500096FF16E09F73992E853619F49064992EA5
:1014600008C0863621F4392F3068932E02C011113E
:10147000115097FE07C01C3350F444244394410E8E
:1014800027E00BC0183038F027E017E005C027E050
:101490009CE3492E02C0212F412C560184E0A80E66
:1014A000B11CF6016081718182819381042DA301B9
:1014B00017D46C01F981FC87F0FF02C0F3FF06C06E
:1014C00091FC06C092FE06C000E205C00DE203C01A
:1014D0000BE201C000E08C858C7019F0011143C251
:1014E00080C297FE10C04C0CFC85F4FF04C08A81BA
:1014F000813309F44A94141474F528E0241578F51E
:1015000088E0482E2CC096FC2AC0812F90E08C15D4
:101510009D059CF03CEFC3163FEFD30674F0892D78
:101520008068982E0AC0E2E0F0E0EC0FFD1FE10FAA
:10153000F11D8081803319F411501111F4CF97FE01
:101540000EC044244394410E812F90E0C816D90662
:101550002CF41C1904C04424439401C010E097FEED
:1015600006C01C141D0434F4C601019605C085E0B4
:1015700090E002C081E090E001110196112331F06A
:10158000212F30E02F5F3F4F820F931F252D30E03A
:101590008217930714F4581A01C0512C892D8970B1
:1015A00041F4552031F0B70180E290E0ACD45A9478
:1015B000F8CF002321F0B701802F90E0A4D493FC52
:1015C00008C0552031F0B70180E390E09CD45A94D4
:1015D000F8CF97FE4AC04601D7FE02C0812C912C5D
:1015E000C60188199909F301E80FF91FFE87ED87F5
:1015F000960124193109388B2F87012F10E011959E
:10160000019511093FEF8316930621F4B7018EE28D
:1016100090E079D4C814D9044CF08F859889881546
:10162000990524F4ED85FE85818101C080E3F1E018
:101630008F1A91082D853E852F5F3F4F3E872D875E
:101640008016910624F0B70190E05DD4DBCFC8147A
:10165000D90441F49A81963320F4953319F43C85EA
:1016600034FF81E3B70190E048C08A81813319F0EB
:101670009C859F7E9C87B70190E045D4111105C0E1
:1016800094FC16C085E690E015C0B7018EE290E0AC
:101690003AD41E5F82E001E0080FF301E80FF11D6C
:1016A0008081B70190E02FD4802F0113F4CFE8CFD1
:1016B00085E490E0B70127D4D7FC06C0C114D1045B
:1016C00041F4EC85E4FF05C0D194C194D1088DE2CA
:1016D00001C08BE2B70190E016D480E32AE0C21685
:1016E000D1042CF08F5FFAE0CF1AD108F7CFB70101
:1016F00090E009D4B701C601C09605D449C183362C
:1017000031F0833779F0833509F052C01FC056019C
:1017100032E0A30EB11CF6018081898301E010E064
:10172000630111C05601F2E0AF0EB11CF601C0809A
:10173000D18096FE03C0612F70E002C06FEF7FEF93
:10174000C601CED38C01F92DFF7713C0560122E0DC
:10175000A20EB11CF601C080D18096FE03C0612F9D
:1017600070E002C06FEF7FEFC6019BD38C01F92DB3
:10177000F0689F2EF3FD18C0852D90E0081719071B
:1017800098F4B70180E290E0BED35A94F5CFF60109
:1017900097FC859197FE81916F01B70190E0B3D3DB
:1017A00051105A94015011090115110581F7F0C02B
:1017B000843611F0893659F5560197FE09C024E0A8
:1017C000A20EB11CF60160817181828193810AC0F1
:1017D000F2E0AF0EB11CF60160817181072E000CA2
:1017E000880B990BF92DFF769F2E97FF09C09095D6
:1017F0008095709561957F4F8F4F9F4FF0689F2E1A
:101800002AE030E0A301F9D3C82EC6183EC0092D46
:10181000853721F40F7E2AE030E01DC0097F8F3626
:1018200091F018F4883559F0BCC0803719F088372A
:1018300011F0B7C0006104FF09C0046007C094FE46
:1018400008C0066006C028E030E005C020E130E0B6
:1018500002C020E132E0560107FF09C084E0A80E73
:10186000B11CF601608171818281938108C0F2E030
:10187000AF0EB11CF6016081718180E090E0A301A0
:10188000BCD3C82EC6180F77902E96FE0BC0092D1C
:101890000E7FC11650F494FE0AC092FC08C0092DB8
:1018A0000E7E05C0DC2C092D03C0DC2C01C0D12E1E
:1018B00004FF0DC0FE01EC0DF11D8081803311F499
:1018C000097E09C002FF06C0D394D39404C0802FC0
:1018D000867809F0D39403FD10C000FF06C01C2DCC
:1018E000D51478F4150D1D190CC0D51450F4B7019A
:1018F00080E290E008D3D394F8CFD51410F45D18AB
:1019000001C0512C04FF0FC0B70180E390E0FBD26F
:1019100002FF16C001FD03C088E790E002C088E521
:1019200090E0B7010CC0802F867851F001FF02C013
:101930008BE201C080E207FD8DE2B70190E0E3D2C7
:10194000C11630F4B70180E390E0DDD21150F8CF3A
:10195000CA94F301EC0DF11D8081B70190E0D3D260
:10196000C110F6CF15C0F4E0F51550F584E0581A13
:1019700093FE1EC0011125C02C8523FF27C000E760
:1019800010E0392D3071932EF8018491811121C01E
:10199000552009F4FCCCB70180E290E0B4D25A940F
:1019A000F7CFF7018681978123C08FEF9FEF20C08B
:1019B000B70180E290E0A7D25A945110F9CFDACF64
:1019C000512CB701802F90E09ED2D6CF04E710E0D3
:1019D000D8CF91108052B70190E095D20F5F1F4F82
:1019E000D3CF23E0251510F483E0C1CF512CC4CF11
:1019F0006096E2E11CC02F923F924F925F926F92ED
:101A00007F928F929F92AF92BF92CF92DF92EF928E
:101A1000FF920F931F93CF93DF93CDB7DEB7CA1B0F
:101A2000DB0B0FB6F894DEBF0FBECDBF09942A883A
:101A3000398848885F846E847D848C849B84AA84E2
:101A4000B984C884DF80EE80FD800C811B81AA816F
:101A5000B981CE0FD11D0FB6F894DEBF0FBECDBF3A
:101A6000ED0108950F931F93CF93DF93823091057B
:101A700010F482E090E0E091C101F091C20120E019
:101A800030E0A0E0B0E0309719F14081518102814F
:101A9000138148175907C8F08417950769F4109700
:101AA00031F012960C93129713961C9327C0009353
:101AB000C1011093C20122C02115310519F042174E
:101AC000530718F49A01BD01EF01DF01F801DBCFE4
:101AD00021153105F9F0281B390B2430310580F42C
:101AE0008A819B816115710521F0FB0193838283BB
:101AF00004C09093C2018093C101FE01329644C09C
:101B0000FE01E20FF31F8193919322503109398333
:101B100028833AC02091BF013091C001232B41F4AA
:101B200020910201309103013093C0012093BF0145
:101B300020910001309101012115310541F42DB7AB
:101B40003EB74091040150910501241B350BE091F3
:101B5000BF01F091C001E217F307A0F42E1B3F0B69
:101B60002817390778F0AC014E5F5F4F241735070F
:101B700048F04E0F5F1F5093C0014093BF01819307
:101B8000919302C0E0E0F0E0CF01DF91CF911F918F
:101B90000F910895CF93DF93009709F481C0FC0162
:101BA000329713821282A091C101B091C2011097A5
:101BB00081F420813181820F931F2091BF013091E8
:101BC000C0012817390751F5F093C001E093BF0118
:101BD00067C0ED0120E030E0CE17DF0740F44A8116
:101BE0005B819E0141155105F1F0EA01F5CFD383E8
:101BF000C28340815181840F951FC817D90759F4BA
:101C000088819981840F951F0296918380838A81B0
:101C10009B81938382832115310529F4F093C201BE
:101C2000E093C1013DC0E901FB83EA8349915991E9
:101C3000C40FD51FEC17FD0761F480819181840FDB
:101C4000951F0296E90199838883828193819B8302
:101C50008A83E0E0F0E012968D919C9113970097B3
:101C600019F0FD01DC01F7CF8D919C9111979D0139
:101C70002E5F3F4F820F931F2091BF013091C00113
:101C80002817390769F4309729F41092C20110928D
:101C9000C10102C013821282B093C001A093BF01A0
:101CA000DF91CF910895FC0188279927E89421912D
:101CB0002032E9F3293010F02E30C8F32B3239F0FE
:101CC0002D3231F4689403C016D1820F911D2191F9
:101CD00020532A30C8F31EF4909581959F4F0895A4
:101CE000283008F027E03327DA01990F311D87FDEE
:101CF000916000966105710539F432602E5F3D9365
:101D000030E32A95E1F708959F3F30F08038710560
:101D1000610509F03C5F3C5F3D93913008F08068BD
:101D2000911DDF93CF931F930F93FF92EF92192F83
:101D3000987F9695E92F96959695E90FFF27EE5295
:101D4000FF4F99273327EE24FF24A701E7010590D1
:101D50000894079428F4360FE71EF81E491F511DFA
:101D6000660F771F881F991F0694A1F705900794A7
:101D700028F4E70EF81E491F561FC11D770F881F54
:101D8000991F661F0694A1F70590079428F4F80E92
:101D9000491F561FC71FD11D880F991F661F771F28
:101DA0000694A1F70590079420F4490F561FC71F0A
:101DB000D81F990F661F771F881F0694A9F7849173
:101DC0001095177041F0D695C79557954795F7949C
:101DD000E7941A95C1F7E8E7F0E06894159015913B
:101DE00035916591959105907FE27395E118F10A1F
:101DF000430B560BC90BD009C0F7E10CF11E431F72
:101E0000561FC91FD01D7EF4703311F48A95E6CF9A
:101E1000E894015030F0080F0AF40027021708F484
:101E2000202F2395022F7A3328F079E37D932A958A
:101E3000E9F710C07D932A9589F6069497956795E2
:101E4000379517951794E118F10A430B560BC90BF8
:101E5000D00998F023957E9173957A3308F070E35A
:101E60007C932013B8F77E9170617D9330F0839559
:101E700071E37D9370E32A95E1F71124EF90FF90D1
:101E80000F911F91CF91DF91992787FD909508952C
:101E9000FB01DC018D91059080190110D9F3990B9C
:101EA0000895FC010590615070400110D8F78095AD
:101EB00090958E0F9F1F0895FB01DC0104C08D914A
:101EC0000190801921F441505040C8F7881B990BAC
:101ED0000895FB01DC0101900D920020E1F70895C7
:101EE000FC016150704001900110D8F780959095E9
:101EF0008E0F9F1F08957AE0979F902D879F802DCA
:101F0000910D112408950F931F93CF93DF93FB013D
:101F1000238121FD03C08FEF9FEF2CC022FF16C04D
:101F200046815781248135814217530744F4A081AB
:101F3000B1819D012F5F3F4F318320838C93268198
:101F400037812F5F3F4F3783268314C08B01EC010D
:101F5000FB010084F185E02D0995892BE1F6D8017C
:101F600016968D919C911797019617969C938E9338
:101F70001697CE01DF91CF911F910F910895AEE09A
:101F8000B0E0E4ECFFE045CD0D891E8986E08C834E
:101F90001A8309838FEF9FE79E838D83AE01475E8F
:101FA0005F4F6F89788DCE010196C7D9EF81F88593
:101FB000E00FF11F10822E96E4E047CDAEE0B0E0D6
:101FC000E3EEFFE026CD0D891E898EE08C831A8317
:101FD00009838FEF9FE79E838D83AE01475E5F4F3E
:101FE0006F89788DCE010196A8D9EF81F885E00F31
:101FF000F11F10822E96E4E028CDFA01AA2728309E
:1020000051F1203181F1E8946F936E7F6E5F7F4FC5
:102010008F4F9F4FAF4FB1E03ED0B4E03CD0670F41
:10202000781F891F9A1FA11D680F791F8A1F911D94
:10203000A11D6A0F711D811D911DA11D20D009F4E4
:1020400068943F912AE0269F11243019305D319326
:10205000DEF6CF010895462F4770405D4193B3E00F
:102060000FD0C9F7F6CF462F4F70405D4A3318F0B6
:10207000495D31FD4052419302D0A9F7EACFB4E067
:10208000A6959795879577956795BA95C9F700971F
:102090006105710508959B01AC010A2E06945795C0
:1020A000479537952795BA95C9F7620F731F841F17
:0A20B000951FA01D0895F894FFCFBE
:0A20BA000000C301200025750A0094
:00000001FF
